{
  "_format": "hh-sol-artifact-1",
  "contractName": "AuditorNFT",
  "sourceName": "contracts/core/AuditorNFT.sol",
  "abi": [
    {
      "inputs": [
        {
          "internalType": "string",
          "name": "name",
          "type": "string"
        },
        {
          "internalType": "string",
          "name": "symbol",
          "type": "string"
        }
      ],
      "stateMutability": "nonpayable",
      "type": "constructor"
    },
    {
      "inputs": [],
      "name": "SBT_ApprovalNotSupported",
      "type": "error"
    },
    {
      "inputs": [],
      "name": "SBT__TransferNotSupported",
      "type": "error"
    },
    {
      "anonymous": false,
      "inputs": [
        {
          "indexed": true,
          "internalType": "address",
          "name": "owner",
          "type": "address"
        },
        {
          "indexed": true,
          "internalType": "address",
          "name": "approved",
          "type": "address"
        },
        {
          "indexed": true,
          "internalType": "uint256",
          "name": "tokenId",
          "type": "uint256"
        }
      ],
      "name": "Approval",
      "type": "event"
    },
    {
      "anonymous": false,
      "inputs": [
        {
          "indexed": true,
          "internalType": "address",
          "name": "owner",
          "type": "address"
        },
        {
          "indexed": true,
          "internalType": "address",
          "name": "operator",
          "type": "address"
        },
        {
          "indexed": false,
          "internalType": "bool",
          "name": "approved",
          "type": "bool"
        }
      ],
      "name": "ApprovalForAll",
      "type": "event"
    },
    {
      "anonymous": false,
      "inputs": [
        {
          "indexed": false,
          "internalType": "address",
          "name": "auditor",
          "type": "address"
        }
      ],
      "name": "MintAuditorNFT",
      "type": "event"
    },
    {
      "anonymous": false,
      "inputs": [
        {
          "indexed": true,
          "internalType": "address",
          "name": "from",
          "type": "address"
        },
        {
          "indexed": true,
          "internalType": "address",
          "name": "to",
          "type": "address"
        },
        {
          "indexed": true,
          "internalType": "uint256",
          "name": "tokenId",
          "type": "uint256"
        }
      ],
      "name": "Transfer",
      "type": "event"
    },
    {
      "inputs": [
        {
          "internalType": "address",
          "name": "auditor",
          "type": "address"
        },
        {
          "internalType": "address",
          "name": "contractAddress",
          "type": "address"
        }
      ],
      "name": "addAuditedContract",
      "outputs": [],
      "stateMutability": "nonpayable",
      "type": "function"
    },
    {
      "inputs": [
        {
          "internalType": "address",
          "name": "",
          "type": "address"
        },
        {
          "internalType": "uint256",
          "name": "",
          "type": "uint256"
        }
      ],
      "name": "approve",
      "outputs": [],
      "stateMutability": "pure",
      "type": "function"
    },
    {
      "inputs": [
        {
          "internalType": "address",
          "name": "owner",
          "type": "address"
        }
      ],
      "name": "balanceOf",
      "outputs": [
        {
          "internalType": "uint256",
          "name": "",
          "type": "uint256"
        }
      ],
      "stateMutability": "view",
      "type": "function"
    },
    {
      "inputs": [
        {
          "internalType": "uint256",
          "name": "",
          "type": "uint256"
        }
      ],
      "name": "getApproved",
      "outputs": [
        {
          "internalType": "address",
          "name": "",
          "type": "address"
        }
      ],
      "stateMutability": "pure",
      "type": "function"
    },
    {
      "inputs": [
        {
          "internalType": "address",
          "name": "auditor",
          "type": "address"
        }
      ],
      "name": "getAuditorData",
      "outputs": [
        {
          "components": [
            {
              "internalType": "uint8",
              "name": "reputationScore",
              "type": "uint8"
            },
            {
              "internalType": "address[]",
              "name": "auditedContracts",
              "type": "address[]"
            }
          ],
          "internalType": "struct IAuditorNFT.AuditorData",
          "name": "",
          "type": "tuple"
        }
      ],
      "stateMutability": "view",
      "type": "function"
    },
    {
      "inputs": [
        {
          "internalType": "address",
          "name": "owner",
          "type": "address"
        }
      ],
      "name": "getTokenIdOfOwner",
      "outputs": [
        {
          "internalType": "uint256",
          "name": "",
          "type": "uint256"
        }
      ],
      "stateMutability": "view",
      "type": "function"
    },
    {
      "inputs": [
        {
          "internalType": "address",
          "name": "",
          "type": "address"
        },
        {
          "internalType": "address",
          "name": "",
          "type": "address"
        }
      ],
      "name": "isApprovedForAll",
      "outputs": [
        {
          "internalType": "bool",
          "name": "",
          "type": "bool"
        }
      ],
      "stateMutability": "pure",
      "type": "function"
    },
    {
      "inputs": [
        {
          "internalType": "address",
          "name": "auditor",
          "type": "address"
        }
      ],
      "name": "mint",
      "outputs": [],
      "stateMutability": "nonpayable",
      "type": "function"
    },
    {
      "inputs": [],
      "name": "name",
      "outputs": [
        {
          "internalType": "string",
          "name": "",
          "type": "string"
        }
      ],
      "stateMutability": "view",
      "type": "function"
    },
    {
      "inputs": [
        {
          "internalType": "uint256",
          "name": "tokenId",
          "type": "uint256"
        }
      ],
      "name": "ownerOf",
      "outputs": [
        {
          "internalType": "address",
          "name": "",
          "type": "address"
        }
      ],
      "stateMutability": "view",
      "type": "function"
    },
    {
      "inputs": [
        {
          "internalType": "address",
          "name": "",
          "type": "address"
        },
        {
          "internalType": "address",
          "name": "",
          "type": "address"
        },
        {
          "internalType": "uint256",
          "name": "",
          "type": "uint256"
        }
      ],
      "name": "safeTransferFrom",
      "outputs": [],
      "stateMutability": "pure",
      "type": "function"
    },
    {
      "inputs": [
        {
          "internalType": "address",
          "name": "",
          "type": "address"
        },
        {
          "internalType": "address",
          "name": "",
          "type": "address"
        },
        {
          "internalType": "uint256",
          "name": "",
          "type": "uint256"
        },
        {
          "internalType": "bytes",
          "name": "",
          "type": "bytes"
        }
      ],
      "name": "safeTransferFrom",
      "outputs": [],
      "stateMutability": "pure",
      "type": "function"
    },
    {
      "inputs": [
        {
          "internalType": "address",
          "name": "",
          "type": "address"
        },
        {
          "internalType": "bool",
          "name": "",
          "type": "bool"
        }
      ],
      "name": "setApprovalForAll",
      "outputs": [],
      "stateMutability": "pure",
      "type": "function"
    },
    {
      "inputs": [
        {
          "internalType": "bytes4",
          "name": "interfaceId",
          "type": "bytes4"
        }
      ],
      "name": "supportsInterface",
      "outputs": [
        {
          "internalType": "bool",
          "name": "",
          "type": "bool"
        }
      ],
      "stateMutability": "view",
      "type": "function"
    },
    {
      "inputs": [],
      "name": "symbol",
      "outputs": [
        {
          "internalType": "string",
          "name": "",
          "type": "string"
        }
      ],
      "stateMutability": "view",
      "type": "function"
    },
    {
      "inputs": [
        {
          "internalType": "address",
          "name": "",
          "type": "address"
        },
        {
          "internalType": "address",
          "name": "",
          "type": "address"
        },
        {
          "internalType": "uint256",
          "name": "",
          "type": "uint256"
        }
      ],
      "name": "transferFrom",
      "outputs": [],
      "stateMutability": "pure",
      "type": "function"
    }
  ],
  "bytecode": "0x60806040523480156200001157600080fd5b5060405162000f9338038062000f93833981016040819052620000349162000123565b818160016200004483826200021c565b5060026200005382826200021c565b5050505050620002e8565b634e487b7160e01b600052604160045260246000fd5b600082601f8301126200008657600080fd5b81516001600160401b0380821115620000a357620000a36200005e565b604051601f8301601f19908116603f01168101908282118183101715620000ce57620000ce6200005e565b81604052838152602092508683858801011115620000eb57600080fd5b600091505b838210156200010f5785820183015181830184015290820190620000f0565b600093810190920192909252949350505050565b600080604083850312156200013757600080fd5b82516001600160401b03808211156200014f57600080fd5b6200015d8683870162000074565b935060208501519150808211156200017457600080fd5b50620001838582860162000074565b9150509250929050565b600181811c90821680620001a257607f821691505b602082108103620001c357634e487b7160e01b600052602260045260246000fd5b50919050565b601f8211156200021757600081815260208120601f850160051c81016020861015620001f25750805b601f850160051c820191505b818110156200021357828155600101620001fe565b5050505b505050565b81516001600160401b038111156200023857620002386200005e565b62000250816200024984546200018d565b84620001c9565b602080601f8311600181146200028857600084156200026f5750858301515b600019600386901b1c1916600185901b17855562000213565b600085815260208120601f198616915b82811015620002b95788860151825594840194600190910190840162000298565b5085821015620002d85787850151600019600388901b60f8161c191681555b5050505050600190811b01905550565b610c9b80620002f86000396000f3fe608060405234801561001057600080fd5b50600436106101005760003560e01c80636a627842116100975780639c85cd6b116100665780639c85cd6b14610254578063a22cb4651461027d578063b88d4fde1461028b578063e985e9c51461029957600080fd5b80636a627842146101c957806370a08231146101dc5780638204f74d146101fd57806395d89b411461024c57600080fd5b806323b872dd116100d357806323b872dd1461018357806342842e0e146101835780635e1be8b4146101965780636352211e146101b657600080fd5b806301ffc9a71461010557806306fdde031461012d578063081812fc14610142578063095ea7b31461016e575b600080fd5b61011861011336600461094c565b6102af565b60405190151581526020015b60405180910390f35b6101356102e6565b604051610124919061097d565b6101566101503660046109cb565b50600090565b6040516001600160a01b039091168152602001610124565b61018161017c366004610a00565b610378565b005b610181610191366004610a2a565b610391565b6101a96101a4366004610a66565b6103aa565b6040516101249190610a81565b6101566101c43660046109cb565b610451565b6101816101d7366004610a66565b6104bb565b6101ef6101ea366004610a66565b6105e2565b604051908152602001610124565b61018161020b366004610ae5565b6001600160a01b0391821660009081526006602090815260408220600190810180549182018155835291200180546001600160a01b03191691909216179055565b610135610668565b6101ef610262366004610a66565b6001600160a01b031660009081526005602052604090205490565b61018161017c366004610b18565b610181610191366004610b54565b6101186102a7366004610ae5565b600092915050565b60006001600160e01b031982166380ac58cd60e01b14806102e057506301ffc9a760e01b6001600160e01b03198316145b92915050565b6060600180546102f590610bef565b80601f016020809104026020016040519081016040528092919081815260200182805461032190610bef565b801561036e5780601f106103435761010080835404028352916020019161036e565b820191906000526020600020905b81548152906001019060200180831161035157829003601f168201915b5050505050905090565b604051631e507fd160e31b815260040160405180910390fd5b6040516335b3f76960e21b815260040160405180910390fd5b6040805180820190915260008152606060208201526001600160a01b03821660009081526006602090815260409182902082518084018452815460ff1681526001820180548551818602810186019096528086529194929385810193929083018282801561044157602002820191906000526020600020905b81546001600160a01b03168152600190910190602001808311610423575b5050505050815250509050919050565b6000818152600360205260408120546001600160a01b0316806102e05760405162461bcd60e51b815260206004820152601860248201527f4552433732313a20696e76616c696420746f6b656e204944000000000000000060448201526064015b60405180910390fd5b6001600160a01b038116600090815260066020908152604080832081518083018352815460ff168152600182018054845181870281018701909552808552919492938584019390929083018282801561053d57602002820191906000526020600020905b81546001600160a01b0316815260019091019060200180831161051f575b50505091909252505060328252506001600160a01b03831660009081526006602090815260409091208251815460ff191660ff90911617815581830151805193945084939192610595926001850192909101906108d2565b509050506105a282610677565b6040516001600160a01b03831681527f07f5ed5a4593c46c57925682cd1e477e690a40d4c9462c076eba3db78cf615aa9060200160405180910390a15050565b60006001600160a01b03821661064c5760405162461bcd60e51b815260206004820152602960248201527f4552433732313a2061646472657373207a65726f206973206e6f7420612076616044820152683634b21037bbb732b960b91b60648201526084016104b2565b506001600160a01b031660009081526004602052604090205490565b6060600280546102f590610bef565b610685600080546001019055565b600080546001600160a01b0383168252600560205260409091208190556106ac82826106b0565b5050565b6001600160a01b0382166107065760405162461bcd60e51b815260206004820181905260248201527f4552433732313a206d696e7420746f20746865207a65726f206164647265737360448201526064016104b2565b6000818152600360205260409020546001600160a01b03161561076b5760405162461bcd60e51b815260206004820152601c60248201527f4552433732313a20746f6b656e20616c7265616479206d696e7465640000000060448201526064016104b2565b610779600083836001610849565b6000818152600360205260409020546001600160a01b0316156107de5760405162461bcd60e51b815260206004820152601c60248201527f4552433732313a20746f6b656e20616c7265616479206d696e7465640000000060448201526064016104b2565b6001600160a01b038216600081815260046020908152604080832080546001019055848352600390915280822080546001600160a01b0319168417905551839291907fddf252ad1be2c89b69c2b068fc378daa952ba7f163c4a11628f55a4df523b3ef908290a45050565b60018111156108cc576001600160a01b0384161561088f576001600160a01b03841660009081526004602052604081208054839290610889908490610c3f565b90915550505b6001600160a01b038316156108cc576001600160a01b038316600090815260046020526040812080548392906108c6908490610c52565b90915550505b50505050565b828054828255906000526020600020908101928215610927579160200282015b8281111561092757825182546001600160a01b0319166001600160a01b039091161782556020909201916001909101906108f2565b50610933929150610937565b5090565b5b808211156109335760008155600101610938565b60006020828403121561095e57600080fd5b81356001600160e01b03198116811461097657600080fd5b9392505050565b600060208083528351808285015260005b818110156109aa5785810183015185820160400152820161098e565b506000604082860101526040601f19601f8301168501019250505092915050565b6000602082840312156109dd57600080fd5b5035919050565b80356001600160a01b03811681146109fb57600080fd5b919050565b60008060408385031215610a1357600080fd5b610a1c836109e4565b946020939093013593505050565b600080600060608486031215610a3f57600080fd5b610a48846109e4565b9250610a56602085016109e4565b9150604084013590509250925092565b600060208284031215610a7857600080fd5b610976826109e4565b6020808252825160ff16828201528281015160408084015280516060840181905260009291820190839060808601905b80831015610ada5783516001600160a01b03168252928401926001929092019190840190610ab1565b509695505050505050565b60008060408385031215610af857600080fd5b610b01836109e4565b9150610b0f602084016109e4565b90509250929050565b60008060408385031215610b2b57600080fd5b610b34836109e4565b915060208301358015158114610b4957600080fd5b809150509250929050565b600080600080600060808688031215610b6c57600080fd5b610b75866109e4565b9450610b83602087016109e4565b935060408601359250606086013567ffffffffffffffff80821115610ba757600080fd5b818801915088601f830112610bbb57600080fd5b813581811115610bca57600080fd5b896020828501011115610bdc57600080fd5b9699959850939650602001949392505050565b600181811c90821680610c0357607f821691505b602082108103610c2357634e487b7160e01b600052602260045260246000fd5b50919050565b634e487b7160e01b600052601160045260246000fd5b818103818111156102e0576102e0610c29565b808201808211156102e0576102e0610c2956fea26469706673582212204b794a9bad267cb344705142df9356cb78e7251cd028de73dda81df0d6cb41bb64736f6c63430008130033",
  "linkReferences": {},
  "deployedLinkReferences": {}
}