{
  "_format": "hh-sol-artifact-1",
  "contractName": "SecuredDex",
  "sourceName": "contracts/dex/SecuredDex.sol",
  "abi": [
    {
      "inputs": [
        {
          "internalType": "contract ISmartContractNFT",
          "name": "_turtleShell",
          "type": "address"
        }
      ],
      "stateMutability": "nonpayable",
      "type": "constructor"
    },
    {
      "anonymous": false,
      "inputs": [
        {
          "indexed": false,
          "internalType": "address",
          "name": "liquidityPoolAddress",
          "type": "address"
        }
      ],
      "name": "CreatedLiquidityPool",
      "type": "event"
    },
    {
      "inputs": [],
      "name": "GOOD_ERC20_TYPE",
      "outputs": [
        {
          "internalType": "bytes32",
          "name": "",
          "type": "bytes32"
        }
      ],
      "stateMutability": "view",
      "type": "function"
    },
    {
      "inputs": [
        {
          "internalType": "address",
          "name": "token1",
          "type": "address"
        },
        {
          "internalType": "address",
          "name": "token2",
          "type": "address"
        }
      ],
      "name": "createSafeLiquidityPool",
      "outputs": [],
      "stateMutability": "nonpayable",
      "type": "function"
    },
    {
      "inputs": [],
      "name": "turtleShell",
      "outputs": [
        {
          "internalType": "contract ISmartContractNFT",
          "name": "",
          "type": "address"
        }
      ],
      "stateMutability": "view",
      "type": "function"
    }
  ],
  "bytecode": "0x60a060405234801561001057600080fd5b5060405161066f38038061066f83398101604081905261002f91610040565b6001600160a01b0316608052610070565b60006020828403121561005257600080fd5b81516001600160a01b038116811461006957600080fd5b9392505050565b6080516105d761009860003960008181608501528181610117015261021101526105d76000f3fe608060405234801561001057600080fd5b50600436106100415760003560e01c8063438a61a9146100465780636da4999114610080578063bc5b8b82146100bf575b600080fd5b61006d7f07ecb3cd846d76170c128afaf4ee45f40cbbbdd41d9102f9e4468ba2036776e881565b6040519081526020015b60405180910390f35b6100a77f000000000000000000000000000000000000000000000000000000000000000081565b6040516001600160a01b039091168152602001610077565b6100d26100cd366004610372565b6100d4565b005b60405163b3ccb1a760e01b81526001600160a01b03808416600483015283917f07ecb3cd846d76170c128afaf4ee45f40cbbbdd41d9102f9e4468ba2036776e8917f0000000000000000000000000000000000000000000000000000000000000000169063b3ccb1a790602401606060405180830381865afa15801561015e573d6000803e3d6000fd5b505050506040513d601f19601f8201168201806040525081019061018291906103ab565b60200151146101ce5760405162461bcd60e51b8152602060048201526013602482015272546f6b656e206973206e6f742073656375726560681b60448201526064015b60405180910390fd5b60405163b3ccb1a760e01b81526001600160a01b03808416600483015283917f07ecb3cd846d76170c128afaf4ee45f40cbbbdd41d9102f9e4468ba2036776e8917f0000000000000000000000000000000000000000000000000000000000000000169063b3ccb1a790602401606060405180830381865afa158015610258573d6000803e3d6000fd5b505050506040513d601f19601f8201168201806040525081019061027c91906103ab565b60200151146102c35760405162461bcd60e51b8152602060048201526013602482015272546f6b656e206973206e6f742073656375726560681b60448201526064016101c5565b600084846040516102d39061034d565b6001600160a01b03928316815291166020820152604001604051809103906000f080158015610306573d6000803e3d6000fd5b506040516001600160a01b03821681529091507fc6a7a22b47297f0c6f8685f6f1206d398c1c874c19ab4c02ff0eea65130a9ada9060200160405180910390a15050505050565b6101798061042983390190565b6001600160a01b038116811461036f57600080fd5b50565b6000806040838503121561038557600080fd5b82356103908161035a565b915060208301356103a08161035a565b809150509250929050565b6000606082840312156103bd57600080fd5b6040516060810181811067ffffffffffffffff821117156103ee57634e487b7160e01b600052604160045260246000fd5b60405282516103fc8161035a565b815260208381015190820152604083015160ff8116811461041c57600080fd5b6040820152939250505056fe60c060405234801561001057600080fd5b5060405161017938038061017983398101604081905261002f91610062565b6001600160a01b039182166080521660a052610095565b80516001600160a01b038116811461005d57600080fd5b919050565b6000806040838503121561007557600080fd5b61007e83610046565b915061008c60208401610046565b90509250929050565b60805160a05160c76100b2600039600050506000505060c76000f3fe6080604052348015600f57600080fd5b506004361060285760003560e01c8063df791e5014602d575b600080fd5b603d6038366004605a565b505050565b005b80356001600160a01b0381168114605557600080fd5b919050565b600080600060608486031215606e57600080fd5b607584603f565b9250608160208501603f565b915060408401359050925092509256fea2646970667358221220eab96f6126b8b13b54faffe3a0911c911ed12d1e4e633787df4149ee3ee3923864736f6c63430008130033a26469706673582212209b9f511fb8109f6fc5966e9f60ec1883fd46531a2777c00fb041b9fc091cb19464736f6c63430008130033",
  "linkReferences": {},
  "deployedLinkReferences": {}
}