{
  "_format": "hh-sol-artifact-1",
  "contractName": "SmartContractNFT",
  "sourceName": "contracts/core/SmartContractNFT.sol",
  "abi": [
    {
      "inputs": [
        {
          "internalType": "address",
          "name": "auditorNFTAddress",
          "type": "address"
        },
        {
          "internalType": "string",
          "name": "name",
          "type": "string"
        },
        {
          "internalType": "string",
          "name": "symbol",
          "type": "string"
        }
      ],
      "stateMutability": "nonpayable",
      "type": "constructor"
    },
    {
      "inputs": [],
      "name": "SBT_ApprovalNotSupported",
      "type": "error"
    },
    {
      "inputs": [],
      "name": "SBT__TransferNotSupported",
      "type": "error"
    },
    {
      "anonymous": false,
      "inputs": [
        {
          "indexed": true,
          "internalType": "address",
          "name": "owner",
          "type": "address"
        },
        {
          "indexed": true,
          "internalType": "address",
          "name": "approved",
          "type": "address"
        },
        {
          "indexed": true,
          "internalType": "uint256",
          "name": "tokenId",
          "type": "uint256"
        }
      ],
      "name": "Approval",
      "type": "event"
    },
    {
      "anonymous": false,
      "inputs": [
        {
          "indexed": true,
          "internalType": "address",
          "name": "owner",
          "type": "address"
        },
        {
          "indexed": true,
          "internalType": "address",
          "name": "operator",
          "type": "address"
        },
        {
          "indexed": false,
          "internalType": "bool",
          "name": "approved",
          "type": "bool"
        }
      ],
      "name": "ApprovalForAll",
      "type": "event"
    },
    {
      "anonymous": false,
      "inputs": [
        {
          "indexed": false,
          "internalType": "address",
          "name": "auditor",
          "type": "address"
        },
        {
          "indexed": false,
          "internalType": "address",
          "name": "contractAddress",
          "type": "address"
        },
        {
          "components": [
            {
              "internalType": "address",
              "name": "auditor",
              "type": "address"
            },
            {
              "internalType": "bytes32",
              "name": "contractType",
              "type": "bytes32"
            }
          ],
          "indexed": false,
          "internalType": "struct ISmartContractNFT.AuditSecurityData",
          "name": "securityData",
          "type": "tuple"
        }
      ],
      "name": "MintSmartContractNFT",
      "type": "event"
    },
    {
      "anonymous": false,
      "inputs": [
        {
          "indexed": true,
          "internalType": "address",
          "name": "from",
          "type": "address"
        },
        {
          "indexed": true,
          "internalType": "address",
          "name": "to",
          "type": "address"
        },
        {
          "indexed": true,
          "internalType": "uint256",
          "name": "tokenId",
          "type": "uint256"
        }
      ],
      "name": "Transfer",
      "type": "event"
    },
    {
      "inputs": [
        {
          "internalType": "address",
          "name": "",
          "type": "address"
        },
        {
          "internalType": "uint256",
          "name": "",
          "type": "uint256"
        }
      ],
      "name": "approve",
      "outputs": [],
      "stateMutability": "pure",
      "type": "function"
    },
    {
      "inputs": [
        {
          "internalType": "address",
          "name": "owner",
          "type": "address"
        }
      ],
      "name": "balanceOf",
      "outputs": [
        {
          "internalType": "uint256",
          "name": "",
          "type": "uint256"
        }
      ],
      "stateMutability": "view",
      "type": "function"
    },
    {
      "inputs": [
        {
          "internalType": "uint256",
          "name": "",
          "type": "uint256"
        }
      ],
      "name": "getApproved",
      "outputs": [
        {
          "internalType": "address",
          "name": "",
          "type": "address"
        }
      ],
      "stateMutability": "pure",
      "type": "function"
    },
    {
      "inputs": [
        {
          "internalType": "address",
          "name": "contractAddress",
          "type": "address"
        }
      ],
      "name": "getContractSecurity",
      "outputs": [
        {
          "components": [
            {
              "internalType": "address",
              "name": "contractAddress",
              "type": "address"
            },
            {
              "internalType": "bytes32",
              "name": "contractType",
              "type": "bytes32"
            },
            {
              "internalType": "uint8",
              "name": "score",
              "type": "uint8"
            }
          ],
          "internalType": "struct ISmartContractNFT.ContractSecurityData",
          "name": "",
          "type": "tuple"
        }
      ],
      "stateMutability": "view",
      "type": "function"
    },
    {
      "inputs": [
        {
          "internalType": "address",
          "name": "owner",
          "type": "address"
        }
      ],
      "name": "getTokenIdOfOwner",
      "outputs": [
        {
          "internalType": "uint256",
          "name": "",
          "type": "uint256"
        }
      ],
      "stateMutability": "view",
      "type": "function"
    },
    {
      "inputs": [
        {
          "internalType": "address",
          "name": "",
          "type": "address"
        },
        {
          "internalType": "address",
          "name": "",
          "type": "address"
        }
      ],
      "name": "isApprovedForAll",
      "outputs": [
        {
          "internalType": "bool",
          "name": "",
          "type": "bool"
        }
      ],
      "stateMutability": "pure",
      "type": "function"
    },
    {
      "inputs": [
        {
          "internalType": "address",
          "name": "contractAddress",
          "type": "address"
        },
        {
          "components": [
            {
              "internalType": "address",
              "name": "auditor",
              "type": "address"
            },
            {
              "internalType": "bytes32",
              "name": "contractType",
              "type": "bytes32"
            }
          ],
          "internalType": "struct ISmartContractNFT.AuditSecurityData",
          "name": "newAuditSecurityData",
          "type": "tuple"
        }
      ],
      "name": "mint",
      "outputs": [],
      "stateMutability": "nonpayable",
      "type": "function"
    },
    {
      "inputs": [],
      "name": "name",
      "outputs": [
        {
          "internalType": "string",
          "name": "",
          "type": "string"
        }
      ],
      "stateMutability": "view",
      "type": "function"
    },
    {
      "inputs": [
        {
          "internalType": "uint256",
          "name": "tokenId",
          "type": "uint256"
        }
      ],
      "name": "ownerOf",
      "outputs": [
        {
          "internalType": "address",
          "name": "",
          "type": "address"
        }
      ],
      "stateMutability": "view",
      "type": "function"
    },
    {
      "inputs": [
        {
          "internalType": "address",
          "name": "",
          "type": "address"
        },
        {
          "internalType": "address",
          "name": "",
          "type": "address"
        },
        {
          "internalType": "uint256",
          "name": "",
          "type": "uint256"
        }
      ],
      "name": "safeTransferFrom",
      "outputs": [],
      "stateMutability": "pure",
      "type": "function"
    },
    {
      "inputs": [
        {
          "internalType": "address",
          "name": "",
          "type": "address"
        },
        {
          "internalType": "address",
          "name": "",
          "type": "address"
        },
        {
          "internalType": "uint256",
          "name": "",
          "type": "uint256"
        },
        {
          "internalType": "bytes",
          "name": "",
          "type": "bytes"
        }
      ],
      "name": "safeTransferFrom",
      "outputs": [],
      "stateMutability": "pure",
      "type": "function"
    },
    {
      "inputs": [
        {
          "internalType": "address",
          "name": "",
          "type": "address"
        },
        {
          "internalType": "bool",
          "name": "",
          "type": "bool"
        }
      ],
      "name": "setApprovalForAll",
      "outputs": [],
      "stateMutability": "pure",
      "type": "function"
    },
    {
      "inputs": [
        {
          "internalType": "bytes4",
          "name": "interfaceId",
          "type": "bytes4"
        }
      ],
      "name": "supportsInterface",
      "outputs": [
        {
          "internalType": "bool",
          "name": "",
          "type": "bool"
        }
      ],
      "stateMutability": "view",
      "type": "function"
    },
    {
      "inputs": [],
      "name": "symbol",
      "outputs": [
        {
          "internalType": "string",
          "name": "",
          "type": "string"
        }
      ],
      "stateMutability": "view",
      "type": "function"
    },
    {
      "inputs": [
        {
          "internalType": "address",
          "name": "",
          "type": "address"
        },
        {
          "internalType": "address",
          "name": "",
          "type": "address"
        },
        {
          "internalType": "uint256",
          "name": "",
          "type": "uint256"
        }
      ],
      "name": "transferFrom",
      "outputs": [],
      "stateMutability": "pure",
      "type": "function"
    }
  ],
  "bytecode": "0x60806040523480156200001157600080fd5b506040516200137a3803806200137a833981016040819052620000349162000145565b818160016200004483826200025e565b5060026200005382826200025e565b5050600680546001600160a01b0319166001600160a01b039590951694909417909355506200032a915050565b634e487b7160e01b600052604160045260246000fd5b600082601f830112620000a857600080fd5b81516001600160401b0380821115620000c557620000c562000080565b604051601f8301601f19908116603f01168101908282118183101715620000f057620000f062000080565b816040528381526020925086838588010111156200010d57600080fd5b600091505b8382101562000131578582018301518183018401529082019062000112565b600093810190920192909252949350505050565b6000806000606084860312156200015b57600080fd5b83516001600160a01b03811681146200017357600080fd5b60208501519093506001600160401b03808211156200019157600080fd5b6200019f8783880162000096565b93506040860151915080821115620001b657600080fd5b50620001c58682870162000096565b9150509250925092565b600181811c90821680620001e457607f821691505b6020821081036200020557634e487b7160e01b600052602260045260246000fd5b50919050565b601f8211156200025957600081815260208120601f850160051c81016020861015620002345750805b601f850160051c820191505b81811015620002555782815560010162000240565b5050505b505050565b81516001600160401b038111156200027a576200027a62000080565b62000292816200028b8454620001cf565b846200020b565b602080601f831160018114620002ca5760008415620002b15750858301515b600019600386901b1c1916600185901b17855562000255565b600085815260208120601f198616915b82811015620002fb57888601518255948401946001909101908401620002da565b50858210156200031a5787850151600019600388901b60f8161c191681555b5050505050600190811b01905550565b611040806200033a6000396000f3fe608060405234801561001057600080fd5b50600436106100f55760003560e01c806370a0823111610097578063a307183811610066578063a3071838146101fe578063b3ccb1a714610211578063b88d4fde146102a9578063e985e9c5146102b757600080fd5b806370a082311461019e57806395d89b41146101bf5780639c85cd6b146101c7578063a22cb465146101f057600080fd5b8063095ea7b3116100d3578063095ea7b31461016357806323b872dd1461017857806342842e0e146101785780636352211e1461018b57600080fd5b806301ffc9a7146100fa57806306fdde0314610122578063081812fc14610137575b600080fd5b61010d610108366004610ac7565b6102cd565b60405190151581526020015b60405180910390f35b61012a610304565b6040516101199190610af8565b61014b610145366004610b46565b50600090565b6040516001600160a01b039091168152602001610119565b610176610171366004610b77565b610396565b005b610176610186366004610ba3565b6103af565b61014b610199366004610b46565b6103c8565b6101b16101ac366004610be4565b610432565b604051908152602001610119565b61012a6104b8565b6101b16101d5366004610be4565b6001600160a01b031660009081526005602052604090205490565b610176610171366004610c01565b61017661020c366004610c3f565b6104c7565b61027b61021f366004610be4565b6040805160608082018352600080835260208084018290529284018190526001600160a01b03948516815260088352839020835191820184528054909416815260018401549181019190915260029092015460ff169082015290565b6040805182516001600160a01b03168152602080840151908201529181015160ff1690820152606001610119565b610176610186366004610c80565b61010d6102c5366004610d1f565b600092915050565b60006001600160e01b031982166380ac58cd60e01b14806102fe57506301ffc9a760e01b6001600160e01b03198316145b92915050565b60606001805461031390610d4d565b80601f016020809104026020016040519081016040528092919081815260200182805461033f90610d4d565b801561038c5780601f106103615761010080835404028352916020019161038c565b820191906000526020600020905b81548152906001019060200180831161036f57829003601f168201915b5050505050905090565b604051631e507fd160e31b815260040160405180910390fd5b6040516335b3f76960e21b815260040160405180910390fd5b6000818152600360205260408120546001600160a01b0316806102fe5760405162461bcd60e51b815260206004820152601860248201527f4552433732313a20696e76616c696420746f6b656e204944000000000000000060448201526064015b60405180910390fd5b60006001600160a01b03821661049c5760405162461bcd60e51b815260206004820152602960248201527f4552433732313a2061646472657373207a65726f206973206e6f7420612076616044820152683634b21037bbb732b960b91b6064820152608401610429565b506001600160a01b031660009081526004602052604090205490565b60606002805461031390610d4d565b600654604051639c85cd6b60e01b81523360048201819052916000916001600160a01b0390911690639c85cd6b90602401602060405180830381865afa158015610515573d6000803e3d6000fd5b505050506040513d601f19601f820116820180604052508101906105399190610d87565b90508060000361059f5760405162461bcd60e51b815260206004820152602b60248201527f41756469746f724e46543a2063616c6c657220686173206e6f2041756469746f60448201526a1c939195081b5a5b9d195960aa1b6064820152608401610429565b6001600160a01b03841660009081526007602090815260408220805460018101825590835291208491600202016105d68282610da0565b50506105e184610637565b6105ea8461086c565b7f48d6653e6033a9053e3a4acb52dede81e7c29f641e316b888bed8d210f330e106106186020850185610be4565b858560405161062993929190610dd6565b60405180910390a150505050565b6001600160a01b038116600090815260076020908152604080832080548251818502810185019093528083529192909190849084015b828210156106b5576000848152602090819020604080518082019091526002850290910180546001600160a01b0316825260019081015482840152908352909201910161066d565b5050505090506000806000836000815181106106d3576106d3610e14565b602002602001015160200151905060005b84518110156107ea5760065485516000916001600160a01b031690635e1be8b49088908590811061071757610717610e14565b6020908102919091010151516040516001600160e01b031960e084901b1681526001600160a01b039091166004820152602401600060405180830381865afa158015610767573d6000803e3d6000fd5b505050506040513d6000823e601f3d908101601f1916820160405261078f9190810190610e9a565b805190915060ff80871690821611156107c6578095508683815181106107b7576107b7610e14565b60200260200101516020015193505b6107d360ff821686610fa9565b9450505080806107e290610fbc565b9150506106e4565b5060008451836107fa9190610fd5565b604080516060810182526001600160a01b03988916808252602080830196875260ff94851683850190815260009283526008909152929020905181546001600160a01b03191699169890981788559251600188015591516002909601805460ff19169690921695909517905550505050565b61087a600080546001019055565b600080546001600160a01b0383168252600560205260409091208190556108a182826108a5565b5050565b6001600160a01b0382166108fb5760405162461bcd60e51b815260206004820181905260248201527f4552433732313a206d696e7420746f20746865207a65726f20616464726573736044820152606401610429565b6000818152600360205260409020546001600160a01b0316156109605760405162461bcd60e51b815260206004820152601c60248201527f4552433732313a20746f6b656e20616c7265616479206d696e746564000000006044820152606401610429565b61096e600083836001610a3e565b6000818152600360205260409020546001600160a01b0316156109d35760405162461bcd60e51b815260206004820152601c60248201527f4552433732313a20746f6b656e20616c7265616479206d696e746564000000006044820152606401610429565b6001600160a01b038216600081815260046020908152604080832080546001019055848352600390915280822080546001600160a01b0319168417905551839291907fddf252ad1be2c89b69c2b068fc378daa952ba7f163c4a11628f55a4df523b3ef908290a45050565b6001811115610ac1576001600160a01b03841615610a84576001600160a01b03841660009081526004602052604081208054839290610a7e908490610ff7565b90915550505b6001600160a01b03831615610ac1576001600160a01b03831660009081526004602052604081208054839290610abb908490610fa9565b90915550505b50505050565b600060208284031215610ad957600080fd5b81356001600160e01b031981168114610af157600080fd5b9392505050565b600060208083528351808285015260005b81811015610b2557858101830151858201604001528201610b09565b506000604082860101526040601f19601f8301168501019250505092915050565b600060208284031215610b5857600080fd5b5035919050565b6001600160a01b0381168114610b7457600080fd5b50565b60008060408385031215610b8a57600080fd5b8235610b9581610b5f565b946020939093013593505050565b600080600060608486031215610bb857600080fd5b8335610bc381610b5f565b92506020840135610bd381610b5f565b929592945050506040919091013590565b600060208284031215610bf657600080fd5b8135610af181610b5f565b60008060408385031215610c1457600080fd5b8235610c1f81610b5f565b915060208301358015158114610c3457600080fd5b809150509250929050565b6000808284036060811215610c5357600080fd5b8335610c5e81610b5f565b92506040601f1982011215610c7257600080fd5b506020830190509250929050565b600080600080600060808688031215610c9857600080fd5b8535610ca381610b5f565b94506020860135610cb381610b5f565b935060408601359250606086013567ffffffffffffffff80821115610cd757600080fd5b818801915088601f830112610ceb57600080fd5b813581811115610cfa57600080fd5b896020828501011115610d0c57600080fd5b9699959850939650602001949392505050565b60008060408385031215610d3257600080fd5b8235610d3d81610b5f565b91506020830135610c3481610b5f565b600181811c90821680610d6157607f821691505b602082108103610d8157634e487b7160e01b600052602260045260246000fd5b50919050565b600060208284031215610d9957600080fd5b5051919050565b8135610dab81610b5f565b81546001600160a01b0319166001600160a01b03919091161781556020919091013560019190910155565b6001600160a01b038481168252838116602083015260808201908335610dfb81610b5f565b1660408301526020929092013560609091015292915050565b634e487b7160e01b600052603260045260246000fd5b634e487b7160e01b600052604160045260246000fd5b6040805190810167ffffffffffffffff81118282101715610e6357610e63610e2a565b60405290565b604051601f8201601f1916810167ffffffffffffffff81118282101715610e9257610e92610e2a565b604052919050565b60006020808385031215610ead57600080fd5b825167ffffffffffffffff80821115610ec557600080fd5b9084019060408287031215610ed957600080fd5b610ee1610e40565b825160ff81168114610ef257600080fd5b81528284015182811115610f0557600080fd5b80840193505086601f840112610f1a57600080fd5b825182811115610f2c57610f2c610e2a565b8060051b9250610f3d858401610e69565b8181529284018501928581019089851115610f5757600080fd5b948601945b84861015610f815785519250610f7183610b5f565b8282529486019490860190610f5c565b95830195909552509695505050505050565b634e487b7160e01b600052601160045260246000fd5b808201808211156102fe576102fe610f93565b600060018201610fce57610fce610f93565b5060010190565b600082610ff257634e487b7160e01b600052601260045260246000fd5b500490565b818103818111156102fe576102fe610f9356fea264697066735822122042f8b3011e309304f0b6a4bb19da0c818190259ae8d932e0fb0cbf698dfed3b364736f6c63430008130033",
  "linkReferences": {},
  "deployedLinkReferences": {}
}